:100000000C9434000C9448000C9446000C94460068
:100010000C9446000C9446000C9446000C94460048
:100020000C9446000C9446000C9446000C94460038
:100030000C9446000C9446000C9446000C94460028
:100040000C9446000C9446000C9446000C94460018
:100050000C9446000C9446000C9446000C94460008
:100060000C9446000C94460011241FBECFEFD8E03C
:10007000DEBFCDBF21E0A0E0B1E001C01D92A43001
:10008000B207E1F70E94A1000C941B030C9400003E
:100090001F920F920FB60F9211242F938F939F935D
:1000A000809100019091010101968630910511F433
:1000B00081E090E090930101809300012FEF89E6A9
:1000C00098E1215080409040E1F700C000004A993B
:1000D00009C02FEF81E19AE7215080409040E1F77D
:1000E00000C000004A9925C080910201909103014F
:1000F000892B59F481E090E09093010180930001F5
:10010000909303018093020114C0809100019091AB
:1001100001018130910519F485E090E001C001975B
:10012000909301018093000115B810920301109281
:1001300002019F918F912F910F900FBE0F901F90F2
:1001400018951AB88FEF8BB984B18E6384B981E0AA
:1001500090E09093010180930001109203011092AE
:10016000020182E08093690081E08DBB78945FEFAB
:1001700062E074E0E8E0F0E1A0E2B1E0C0E8809184
:10018000000190910101019709F0D7C0809102010F
:1001900090910301892B09F033C12D9A1FEF21EEB5
:1001A00044E0115020404040E1F700C000002D988D
:1001B0008FEF91EED4E081509040D040E1F700C045
:1001C00000002C9A1FEF21EE44E0115020404040E7
:1001D000E1F700C000002C988FEF91EED4E0815041
:1001E0009040D040E1F700C000002B9A1FEF21EEB5
:1001F00044E0115020404040E1F700C000002B983F
:100200008FEF91EED4E081509040D040E1F700C0F4
:1002100000002A9A1FEF21EE44E011502040404098
:10022000E1F700C000002A988FEF91EED4E08150F2
:100230009040D040E1F700C00000299A1FEF21EE66
:1002400044E0115020404040E1F700C000002998F0
:100250008FEF91EED4E081509040D040E1F700C0A4
:1002600000008DCF8091020190910301892B09F04C
:1002700094C1299A1FEF21EE44E0115020404040E4
:10028000E1F700C000002A9A8FEF91EED4E0815090
:100290009040D040E1F700C000002B9A1FEF21EE04
:1002A00044E0115020404040E1F700C000002C9A8B
:1002B0008FEF91EED4E081509040D040E1F700C044
:1002C00000002D9A1FEF21EE44E0115020404040E5
:1002D000E1F700C0000029988FEF91EED4E0815043
:1002E0009040D040E1F700C000002A981FEF21EEB7
:1002F00044E0115020404040E1F700C000002B983E
:100300008FEF91EED4E081509040D040E1F700C0F3
:1003100000002C981FEF21EE44E011502040404097
:10032000E1F700C000002D988FEF91EED4E08150EE
:100330009040D040E1F700C0000080910001909112
:100340000101029709F48ECF25C08091020190919E
:100350000301892B09F048C115B81FEF25EA4EE0CB
:10036000115020404040E1F700C0000055B98FEF28
:1003700095EADEE081509040D040E1F700C00000F7
:1003800015B81FEF25EA4EE0115020404040E1F73C
:1003900000C0000080910001909101010397A9F233
:1003A0002FC08091020190910301892B09F01CC19B
:1003B0008AE090E0B5B928E030E045B1440F45B996
:1003C000DFEF1AE643E0D15010404040E1F700C0B3
:1003D00000002150310989F7C5B92AE030E045B164
:1003E000469545B9DFEF1AE643E0D1501040404052
:1003F000E1F700C000002150310989F70197D1F6DB
:100400008091000190910101049759F2C6C080913A
:10041000020190910301892B09F0E6C0299A8FEF20
:1004200092E5D7E081509040D040E1F700C0000055
:1004300029981FEF22E547E0115020404040E1F7A6
:1004400000C00000299A8FEF92E5D7E081509040DC
:10045000D040E1F700C0000029981FEF22E547E0F7
:10046000115020404040E1F700C000002A9A8FEF71
:1004700092E5D7E081509040D040E1F700C0000005
:100480002A981FEF22E547E0115020404040E1F755
:1004900000C000002A9A8FEF92E5D7E0815090408B
:1004A000D040E1F700C000002A981FEF22E547E0A6
:1004B000115020404040E1F700C000002B9A8FEF20
:1004C00092E5D7E081509040D040E1F700C00000B5
:1004D0002B981FEF22E547E0115020404040E1F704
:1004E00000C000002B9A8FEF92E5D7E0815090403A
:1004F000D040E1F700C000002B981FEF22E547E055
:10050000115020404040E1F700C000002C9A8FEFCE
:1005100092E5D7E081509040D040E1F700C0000064
:100520002C981FEF22E547E0115020404040E1F7B2
:1005300000C000002C9A8FEF92E5D7E081509040E8
:10054000D040E1F700C000002C981FEF22E547E003
:10055000115020404040E1F700C000002D9A8FEF7D
:1005600092E5D7E081509040D040E1F700C0000014
:100570002D981FEF22E547E0115020404040E1F761
:1005800000C000002D9A8FEF92E5D7E08150904097
:10059000D040E1F700C000002D98809100019091BB
:1005A0000101059709F433CF1FC08091000190919C
:1005B0000101019709F465B9809100019091010151
:1005C0000297C9F080910001909101010397D9F041
:1005D00080910001909101010497E9F08091000160
:1005E000909101010597F9F080910201909103012A
:1005F0000197D9F2C4CD8091020190910301019736
:1006000009F775B9DFCF809102019091030101973D
:10061000F9F6E5B9DDCF80910201909103010197D0
:10062000E9F6F5B9DBCF80910201909103010197C2
:0A063000D9F6A5B9D9CFF894FFCF91
:00000001FF
